{
    "contractName": "Crowdfunding",
    "abi": [
        {
            "inputs": [
                {
                    "internalType": "address",
                    "name": "_token",
                    "type": "address"
                },
                {
                    "internalType": "uint256",
                    "name": "_maxDuration",
                    "type": "uint256"
                }
            ],
            "stateMutability": "nonpayable",
            "type": "constructor"
        },
        {
            "anonymous": false,
            "inputs": [
                {
                    "indexed": false,
                    "internalType": "uint256",
                    "name": "id",
                    "type": "uint256"
                }
            ],
            "name": "Cancel",
            "type": "event"
        },
        {
            "anonymous": false,
            "inputs": [
                {
                    "indexed": false,
                    "internalType": "uint256",
                    "name": "id",
                    "type": "uint256"
                }
            ],
            "name": "Claim",
            "type": "event"
        },
        {
            "anonymous": false,
            "inputs": [
                {
                    "indexed": false,
                    "internalType": "uint256",
                    "name": "id",
                    "type": "uint256"
                },
                {
                    "indexed": true,
                    "internalType": "address",
                    "name": "creator",
                    "type": "address"
                },
                {
                    "indexed": false,
                    "internalType": "uint256",
                    "name": "goal",
                    "type": "uint256"
                },
                {
                    "indexed": false,
                    "internalType": "uint256",
                    "name": "startsAt",
                    "type": "uint256"
                },
                {
                    "indexed": false,
                    "internalType": "uint256",
                    "name": "endsAt",
                    "type": "uint256"
                }
            ],
            "name": "Launch",
            "type": "event"
        },
        {
            "anonymous": false,
            "inputs": [
                {
                    "indexed": false,
                    "internalType": "uint256",
                    "name": "id",
                    "type": "uint256"
                },
                {
                    "indexed": false,
                    "internalType": "address",
                    "name": "caller",
                    "type": "address"
                },
                {
                    "indexed": false,
                    "internalType": "uint256",
                    "name": "amount",
                    "type": "uint256"
                }
            ],
            "name": "Pledge",
            "type": "event"
        },
        {
            "anonymous": false,
            "inputs": [
                {
                    "indexed": false,
                    "internalType": "uint256",
                    "name": "id",
                    "type": "uint256"
                },
                {
                    "indexed": false,
                    "internalType": "address",
                    "name": "caller",
                    "type": "address"
                },
                {
                    "indexed": false,
                    "internalType": "uint256",
                    "name": "amount",
                    "type": "uint256"
                }
            ],
            "name": "Refund",
            "type": "event"
        },
        {
            "anonymous": false,
            "inputs": [
                {
                    "indexed": false,
                    "internalType": "uint256",
                    "name": "id",
                    "type": "uint256"
                },
                {
                    "indexed": false,
                    "internalType": "address",
                    "name": "caller",
                    "type": "address"
                },
                {
                    "indexed": false,
                    "internalType": "uint256",
                    "name": "amount",
                    "type": "uint256"
                }
            ],
            "name": "Unpledge",
            "type": "event"
        },
        {
            "inputs": [
                {
                    "internalType": "uint256",
                    "name": "",
                    "type": "uint256"
                }
            ],
            "name": "campaigns",
            "outputs": [
                {
                    "internalType": "address",
                    "name": "creator",
                    "type": "address"
                },
                {
                    "internalType": "uint256",
                    "name": "goal",
                    "type": "uint256"
                },
                {
                    "internalType": "uint256",
                    "name": "pledged",
                    "type": "uint256"
                },
                {
                    "internalType": "uint256",
                    "name": "startsAt",
                    "type": "uint256"
                },
                {
                    "internalType": "uint256",
                    "name": "endsAt",
                    "type": "uint256"
                },
                {
                    "internalType": "bool",
                    "name": "claimed",
                    "type": "bool"
                }
            ],
            "stateMutability": "view",
            "type": "function"
        },
        {
            "inputs": [
                {
                    "internalType": "uint256",
                    "name": "_id",
                    "type": "uint256"
                }
            ],
            "name": "cancel",
            "outputs": [],
            "stateMutability": "nonpayable",
            "type": "function"
        },
        {
            "inputs": [
                {
                    "internalType": "uint256",
                    "name": "_id",
                    "type": "uint256"
                }
            ],
            "name": "claim",
            "outputs": [],
            "stateMutability": "nonpayable",
            "type": "function"
        },
        {
            "inputs": [],
            "name": "count",
            "outputs": [
                {
                    "internalType": "uint256",
                    "name": "",
                    "type": "uint256"
                }
            ],
            "stateMutability": "view",
            "type": "function"
        },
        {
            "inputs": [
                {
                    "internalType": "uint256",
                    "name": "_goal",
                    "type": "uint256"
                },
                {
                    "internalType": "uint256",
                    "name": "_startsAt",
                    "type": "uint256"
                },
                {
                    "internalType": "uint256",
                    "name": "_endsAt",
                    "type": "uint256"
                }
            ],
            "name": "launch",
            "outputs": [],
            "stateMutability": "nonpayable",
            "type": "function"
        },
        {
            "inputs": [],
            "name": "maxDuration",
            "outputs": [
                {
                    "internalType": "uint256",
                    "name": "",
                    "type": "uint256"
                }
            ],
            "stateMutability": "view",
            "type": "function"
        },
        {
            "inputs": [
                {
                    "internalType": "uint256",
                    "name": "_id",
                    "type": "uint256"
                },
                {
                    "internalType": "uint256",
                    "name": "_amount",
                    "type": "uint256"
                }
            ],
            "name": "pledge",
            "outputs": [],
            "stateMutability": "nonpayable",
            "type": "function"
        },
        {
            "inputs": [
                {
                    "internalType": "uint256",
                    "name": "",
                    "type": "uint256"
                },
                {
                    "internalType": "address",
                    "name": "",
                    "type": "address"
                }
            ],
            "name": "pledgedAmount",
            "outputs": [
                {
                    "internalType": "uint256",
                    "name": "",
                    "type": "uint256"
                }
            ],
            "stateMutability": "view",
            "type": "function"
        },
        {
            "inputs": [
                {
                    "internalType": "uint256",
                    "name": "_id",
                    "type": "uint256"
                }
            ],
            "name": "refund",
            "outputs": [],
            "stateMutability": "nonpayable",
            "type": "function"
        },
        {
            "inputs": [],
            "name": "token",
            "outputs": [
                {
                    "internalType": "contract IERC20",
                    "name": "",
                    "type": "address"
                }
            ],
            "stateMutability": "view",
            "type": "function"
        },
        {
            "inputs": [
                {
                    "internalType": "uint256",
                    "name": "_id",
                    "type": "uint256"
                },
                {
                    "internalType": "uint256",
                    "name": "_amount",
                    "type": "uint256"
                }
            ],
            "name": "unPledge",
            "outputs": [],
            "stateMutability": "nonpayable",
            "type": "function"
        }
    ],
    "bytecode": "60a060405234801561001057600080fd5b5060405161105138038061105183398101604081905261002f91610045565b6001600160a01b0390911660805260015561007f565b6000806040838503121561005857600080fd5b82516001600160a01b038116811461006f57600080fd5b6020939093015192949293505050565b608051610f9b6100b6600039600081816101ef0152818161034e015281816105e201528181610bd20152610da40152610f9b6000f3fe608060405234801561001057600080fd5b50600436106100a95760003560e01c80636db5c8fd116100715780636db5c8fd146101905780638736c17914610199578063a3a0e936146101ac578063aa4fb63a146101bf578063fc0c546a146101ea578063fde327be1461022957600080fd5b806306661abd146100ae578063141961bc146100ca578063278ecde114610155578063379607f51461016a57806340e58ee51461017d575b600080fd5b6100b760005481565b6040519081526020015b60405180910390f35b61011c6100d8366004610e57565b60026020819052600091825260409091208054600182015492820154600383015460048401546005909401546001600160a01b039093169493919290919060ff1686565b604080516001600160a01b03909716875260208701959095529385019290925260608401526080830152151560a082015260c0016100c1565b610168610163366004610e57565b61023c565b005b610168610178366004610e57565b610402565b61016861018b366004610e57565b610688565b6100b760015481565b6101686101a7366004610e70565b61081d565b6101686101ba366004610e9c565b610a32565b6100b76101cd366004610ebe565b600360209081526000928352604080842090915290825290205481565b6102117f000000000000000000000000000000000000000000000000000000000000000081565b6040516001600160a01b0390911681526020016100c1565b610168610237366004610e9c565b610c85565b6000818152600260205260409020600481015442116102a25760405162461bcd60e51b815260206004820152601a60248201527f43616d706169676e20686173206e6f7420656e6465642079657400000000000060448201526064015b60405180910390fd5b806001015481600201541061030b5760405162461bcd60e51b815260206004820152602960248201527f43616d706169676e20686173207375636365656465642c20796f752063616e6e6044820152681bdd081c99599d5b9960ba1b6064820152608401610299565b600082815260036020908152604080832033808552925280832080549390555163a9059cbb60e01b81526004810191909152602481018290526001600160a01b037f0000000000000000000000000000000000000000000000000000000000000000169063a9059cbb906044016020604051808303816000875af1158015610397573d6000803e3d6000fd5b505050506040513d601f19601f820116820180604052508101906103bb9190610efa565b50604080518481523360208201529081018290527f21e12a7cad0da5928167e1084ea4d5fdf8d9af66657a2543a9ac76a0ca081477906060015b60405180910390a1505050565b600081815260026020526040902080546001600160a01b0316331461048f5760405162461bcd60e51b815260206004820152603860248201527f4f6e6c79207468652063616d706169676e2063726561746f722063616e20636c60448201527f61696d207468652063616d706169676e7320746f6b656e7300000000000000006064820152608401610299565b806004015442116104e25760405162461bcd60e51b815260206004820152601e60248201527f5468652063616d706169676e20686173206e6f7420656e6465642079657400006044820152606401610299565b8060010154816002015410156105455760405162461bcd60e51b815260206004820152602260248201527f5468652063616d706169676e20686173206e6f74207375636365656465642079604482015261195d60f21b6064820152608401610299565b600581015460ff16156105a95760405162461bcd60e51b815260206004820152602660248201527f596f75206861766520616c726561647920636c61696d6564207468697320636160448201526536b830b4b3b760d11b6064820152608401610299565b60058101805460ff19166001179055600281015460405163a9059cbb60e01b815233600482015260248101919091526001600160a01b037f0000000000000000000000000000000000000000000000000000000000000000169063a9059cbb906044016020604051808303816000875af115801561062b573d6000803e3d6000fd5b505050506040513d601f19601f8201168201806040525081019061064f9190610efa565b506040518281527f7bb2b3c10797baccb6f8c4791f1edd6ca2f0d028ee0eda64b01a9a57e3a653f7906020015b60405180910390a15050565b600081815260026020818152604092839020835160c08101855281546001600160a01b03168082526001830154938201939093529281015493830193909352600383015460608301526004830154608083015260059092015460ff16151560a08201529033146107545760405162461bcd60e51b815260206004820152603160248201527f4f6e6c79207468652063616d706169676e2063726561746f722063616e2063616044820152703731b2b6103a34329031b0b6b830b4b3b760791b6064820152608401610299565b806060015142106107a75760405162461bcd60e51b815260206004820181905260248201527f5468652063616d706169676e2061687320616c726561647920737461727465646044820152606401610299565b600082815260026020819052604080832080546001600160a01b031916815560018101849055918201839055600382018390556004820192909255600501805460ff19169055517f8bf30e7ff26833413be5f69e1d373744864d600b664204b4a2f9844a8eedb9ed9061067c9084815260200190565b4282101561087e5760405162461bcd60e51b815260206004820152602860248201527f53746172742074696d65206973206c657373207468616e207468652063757272604482015267656e742074696d6560c01b6064820152608401610299565b8181116108d95760405162461bcd60e51b8152602060048201526024808201527f456e642074696d65206973206c657373207468616e207468652073746172742060448201526374696d6560e01b6064820152608401610299565b6001546108e69042610f39565b8111156109405760405162461bcd60e51b815260206004820152602260248201527f456e642074696d65206578636565646564206d6178696d756d2064757261746960448201526137b760f11b6064820152608401610299565b60016000808282546109529190610f39565b90915550506040805160c081018252338082526020808301878152600084860181815260608087018a815260808089018b815260a08a01868152865487526002808a528c88209b518c546001600160a01b0319166001600160a01b03909116178c55975160018c01559451968a0196909655905160038901559351600488015590516005909601805460ff191696151596909617909555548551908152918201889052938101869052918201849052917fc9142a9424eb889eb9f9493aeb5b3b9ffffe3e32c9361bd725d709f6b28b91b1910160405180910390a2505050565b60008281526002602052604090206003810154421015610a945760405162461bcd60e51b815260206004820181905260248201527f5468652063616d706169676e20686173206e6f742073746172746564207965746044820152606401610299565b8060040154421115610ae85760405162461bcd60e51b815260206004820152601e60248201527f5468652063616d706169676e2068617320616c726561647920656e64656400006044820152606401610299565b6000838152600360209081526040808320338452909152902054821115610b6f5760405162461bcd60e51b815260206004820152603560248201527f596f7520646f6e2774206861766520656e6f75676820746f6b656e7320706c656044820152743233b2b21034b7103a3434b99031b0b6b830b4b3b760591b6064820152608401610299565b81816002016000828254610b839190610f52565b9091555050600083815260036020908152604080832033845290915281208054849290610bb1908490610f52565b909155505060405163a9059cbb60e01b8152336004820152602481018390527f00000000000000000000000000000000000000000000000000000000000000006001600160a01b03169063a9059cbb906044016020604051808303816000875af1158015610c23573d6000803e3d6000fd5b505050506040513d601f19601f82011682018060405250810190610c479190610efa565b50604080518481523360208201529081018390527f2eeeab891b26a214d1b25749f88a406bdea852bd8c9bfda977e0ef8114c180ba906060016103f5565b60008281526002602052604090206003810154421015610ce75760405162461bcd60e51b815260206004820181905260248201527f5468652063616d706169676e20686173206e6f742073746172746564207965746044820152606401610299565b8060040154421115610d3b5760405162461bcd60e51b815260206004820152601e60248201527f5468652063616d706169676e2068617320616c726561647920656e64656400006044820152606401610299565b81816002016000828254610d4f9190610f39565b9091555050600083815260036020908152604080832033845290915281208054849290610d7d908490610f39565b90915550506040516323b872dd60e01b8152336004820152306024820152604481018390527f00000000000000000000000000000000000000000000000000000000000000006001600160a01b0316906323b872dd906064016020604051808303816000875af1158015610df5573d6000803e3d6000fd5b505050506040513d601f19601f82011682018060405250810190610e199190610efa565b50604080518481523360208201529081018390527f06bdb975df800a73232998e71ed585d536222f1dfeaa622d7f62a23ada686c82906060016103f5565b600060208284031215610e6957600080fd5b5035919050565b600080600060608486031215610e8557600080fd5b505081359360208301359350604090920135919050565b60008060408385031215610eaf57600080fd5b50508035926020909101359150565b60008060408385031215610ed157600080fd5b8235915060208301356001600160a01b0381168114610eef57600080fd5b809150509250929050565b600060208284031215610f0c57600080fd5b81518015158114610f1c57600080fd5b9392505050565b634e487b7160e01b600052601160045260246000fd5b80820180821115610f4c57610f4c610f23565b92915050565b81810381811115610f4c57610f4c610f2356fea26469706673582212202da7dc967a48cf492e8c175316da5ae2d7347db7c559977902a7550dae577bba64736f6c63430008110033",
    "sourcePath": "c:/Users/devme/Desktop/blockchain_contracts/Blockchain/contracts/Crowdfunding.sol",
    "compiler": {
        "name": "solc",
        "version": "0.8.17+commit.8df45f5f"
    },
    "functionHashes": {
        "campaigns(uint256)": "141961bc",
        "cancel(uint256)": "40e58ee5",
        "claim(uint256)": "379607f5",
        "count()": "06661abd",
        "launch(uint256,uint256,uint256)": "8736c179",
        "maxDuration()": "6db5c8fd",
        "pledge(uint256,uint256)": "fde327be",
        "pledgedAmount(uint256,address)": "aa4fb63a",
        "refund(uint256)": "278ecde1",
        "token()": "fc0c546a",
        "unPledge(uint256,uint256)": "a3a0e936"
    },
    "gasEstimates": {
        "creation": {
            "codeDepositCost": "799000",
            "executionCost": "infinite",
            "totalCost": "infinite"
        },
        "external": {
            "campaigns(uint256)": "13195",
            "cancel(uint256)": "82916",
            "claim(uint256)": "infinite",
            "count()": "2285",
            "launch(uint256,uint256,uint256)": "infinite",
            "maxDuration()": "2284",
            "pledge(uint256,uint256)": "infinite",
            "pledgedAmount(uint256,address)": "2642",
            "refund(uint256)": "infinite",
            "token()": "infinite",
            "unPledge(uint256,uint256)": "infinite"
        }
    }
}